{
  "address": "0x0f7553618085790790E966f649781Ec020d6dB50",
  "abi": [
    {
      "inputs": [
        {
          "internalType": "address",
          "name": "_treasury",
          "type": "address"
        },
        {
          "internalType": "uint256",
          "name": "_transferFeeRate",
          "type": "uint256"
        }
      ],
      "stateMutability": "nonpayable",
      "type": "constructor"
    },
    {
      "anonymous": false,
      "inputs": [
        {
          "indexed": true,
          "internalType": "address",
          "name": "owner",
          "type": "address"
        },
        {
          "indexed": true,
          "internalType": "address",
          "name": "spender",
          "type": "address"
        },
        {
          "indexed": false,
          "internalType": "uint256",
          "name": "value",
          "type": "uint256"
        }
      ],
      "name": "Approval",
      "type": "event"
    },
    {
      "anonymous": false,
      "inputs": [
        {
          "indexed": true,
          "internalType": "address",
          "name": "backingReserveAddress",
          "type": "address"
        }
      ],
      "name": "BackingReserveAddressUpdated",
      "type": "event"
    },
    {
      "anonymous": false,
      "inputs": [
        {
          "indexed": true,
          "internalType": "address",
          "name": "lockedAddress",
          "type": "address"
        },
        {
          "indexed": false,
          "internalType": "bool",
          "name": "status",
          "type": "bool"
        }
      ],
      "name": "LockedAddressUpdated",
      "type": "event"
    },
    {
      "anonymous": false,
      "inputs": [
        {
          "indexed": true,
          "internalType": "address",
          "name": "previousOwner",
          "type": "address"
        },
        {
          "indexed": true,
          "internalType": "address",
          "name": "newOwner",
          "type": "address"
        }
      ],
      "name": "OwnershipTransferred",
      "type": "event"
    },
    {
      "anonymous": false,
      "inputs": [
        {
          "indexed": true,
          "internalType": "address",
          "name": "poolAddress",
          "type": "address"
        }
      ],
      "name": "PoolAddressUpdated",
      "type": "event"
    },
    {
      "anonymous": false,
      "inputs": [
        {
          "indexed": false,
          "internalType": "uint256",
          "name": "poolFee",
          "type": "uint256"
        }
      ],
      "name": "PoolFeeUpdated",
      "type": "event"
    },
    {
      "anonymous": false,
      "inputs": [
        {
          "indexed": true,
          "internalType": "address",
          "name": "stableTokenAddress",
          "type": "address"
        }
      ],
      "name": "StableTokenAddressUpdated",
      "type": "event"
    },
    {
      "anonymous": false,
      "inputs": [
        {
          "indexed": true,
          "internalType": "address",
          "name": "from",
          "type": "address"
        },
        {
          "indexed": true,
          "internalType": "address",
          "name": "to",
          "type": "address"
        },
        {
          "indexed": false,
          "internalType": "uint256",
          "name": "value",
          "type": "uint256"
        }
      ],
      "name": "Transfer",
      "type": "event"
    },
    {
      "anonymous": false,
      "inputs": [
        {
          "indexed": false,
          "internalType": "uint256",
          "name": "transferFeeRate",
          "type": "uint256"
        }
      ],
      "name": "TransferFeeRateUpdated",
      "type": "event"
    },
    {
      "anonymous": false,
      "inputs": [
        {
          "indexed": true,
          "internalType": "address",
          "name": "treasury",
          "type": "address"
        }
      ],
      "name": "TreasuryUpdated",
      "type": "event"
    },
    {
      "inputs": [
        {
          "internalType": "address",
          "name": "owner",
          "type": "address"
        },
        {
          "internalType": "address",
          "name": "spender",
          "type": "address"
        }
      ],
      "name": "allowance",
      "outputs": [
        {
          "internalType": "uint256",
          "name": "",
          "type": "uint256"
        }
      ],
      "stateMutability": "view",
      "type": "function"
    },
    {
      "inputs": [
        {
          "internalType": "address",
          "name": "spender",
          "type": "address"
        },
        {
          "internalType": "uint256",
          "name": "amount",
          "type": "uint256"
        }
      ],
      "name": "approve",
      "outputs": [
        {
          "internalType": "bool",
          "name": "",
          "type": "bool"
        }
      ],
      "stateMutability": "nonpayable",
      "type": "function"
    },
    {
      "inputs": [],
      "name": "backingReserveAddress",
      "outputs": [
        {
          "internalType": "address",
          "name": "",
          "type": "address"
        }
      ],
      "stateMutability": "view",
      "type": "function"
    },
    {
      "inputs": [
        {
          "internalType": "address",
          "name": "account",
          "type": "address"
        }
      ],
      "name": "balanceOf",
      "outputs": [
        {
          "internalType": "uint256",
          "name": "",
          "type": "uint256"
        }
      ],
      "stateMutability": "view",
      "type": "function"
    },
    {
      "inputs": [],
      "name": "decimals",
      "outputs": [
        {
          "internalType": "uint8",
          "name": "",
          "type": "uint8"
        }
      ],
      "stateMutability": "view",
      "type": "function"
    },
    {
      "inputs": [
        {
          "internalType": "address",
          "name": "spender",
          "type": "address"
        },
        {
          "internalType": "uint256",
          "name": "subtractedValue",
          "type": "uint256"
        }
      ],
      "name": "decreaseAllowance",
      "outputs": [
        {
          "internalType": "bool",
          "name": "",
          "type": "bool"
        }
      ],
      "stateMutability": "nonpayable",
      "type": "function"
    },
    {
      "inputs": [
        {
          "internalType": "address",
          "name": "spender",
          "type": "address"
        },
        {
          "internalType": "uint256",
          "name": "addedValue",
          "type": "uint256"
        }
      ],
      "name": "increaseAllowance",
      "outputs": [
        {
          "internalType": "bool",
          "name": "",
          "type": "bool"
        }
      ],
      "stateMutability": "nonpayable",
      "type": "function"
    },
    {
      "inputs": [
        {
          "internalType": "uint256",
          "name": "",
          "type": "uint256"
        }
      ],
      "name": "lockedAddress",
      "outputs": [
        {
          "internalType": "address",
          "name": "lockedAddress",
          "type": "address"
        },
        {
          "internalType": "bool",
          "name": "status",
          "type": "bool"
        }
      ],
      "stateMutability": "view",
      "type": "function"
    },
    {
      "inputs": [],
      "name": "name",
      "outputs": [
        {
          "internalType": "string",
          "name": "",
          "type": "string"
        }
      ],
      "stateMutability": "view",
      "type": "function"
    },
    {
      "inputs": [],
      "name": "owner",
      "outputs": [
        {
          "internalType": "address",
          "name": "",
          "type": "address"
        }
      ],
      "stateMutability": "view",
      "type": "function"
    },
    {
      "inputs": [],
      "name": "poolAddress",
      "outputs": [
        {
          "internalType": "address",
          "name": "",
          "type": "address"
        }
      ],
      "stateMutability": "view",
      "type": "function"
    },
    {
      "inputs": [],
      "name": "poolFee",
      "outputs": [
        {
          "internalType": "uint24",
          "name": "",
          "type": "uint24"
        }
      ],
      "stateMutability": "view",
      "type": "function"
    },
    {
      "inputs": [],
      "name": "renounceOwnership",
      "outputs": [],
      "stateMutability": "nonpayable",
      "type": "function"
    },
    {
      "inputs": [
        {
          "internalType": "address",
          "name": "_backingReserveAddress",
          "type": "address"
        }
      ],
      "name": "setBackingReserveAddress",
      "outputs": [],
      "stateMutability": "nonpayable",
      "type": "function"
    },
    {
      "inputs": [
        {
          "internalType": "address",
          "name": "_lockedAddress",
          "type": "address"
        },
        {
          "internalType": "bool",
          "name": "_status",
          "type": "bool"
        }
      ],
      "name": "setLockedAddress",
      "outputs": [],
      "stateMutability": "nonpayable",
      "type": "function"
    },
    {
      "inputs": [
        {
          "internalType": "address",
          "name": "_poolAddress",
          "type": "address"
        }
      ],
      "name": "setPoolAddress",
      "outputs": [],
      "stateMutability": "nonpayable",
      "type": "function"
    },
    {
      "inputs": [
        {
          "internalType": "uint24",
          "name": "_poolFee",
          "type": "uint24"
        }
      ],
      "name": "setPoolFee",
      "outputs": [],
      "stateMutability": "nonpayable",
      "type": "function"
    },
    {
      "inputs": [
        {
          "internalType": "address",
          "name": "_stableTokenAddress",
          "type": "address"
        }
      ],
      "name": "setStableTokenAddress",
      "outputs": [],
      "stateMutability": "nonpayable",
      "type": "function"
    },
    {
      "inputs": [
        {
          "internalType": "uint256",
          "name": "_transferFeeRate",
          "type": "uint256"
        }
      ],
      "name": "setTransferFeeRate",
      "outputs": [],
      "stateMutability": "nonpayable",
      "type": "function"
    },
    {
      "inputs": [
        {
          "internalType": "address",
          "name": "_treasury",
          "type": "address"
        }
      ],
      "name": "setTreasury",
      "outputs": [],
      "stateMutability": "nonpayable",
      "type": "function"
    },
    {
      "inputs": [],
      "name": "stableTokenAddress",
      "outputs": [
        {
          "internalType": "address",
          "name": "",
          "type": "address"
        }
      ],
      "stateMutability": "view",
      "type": "function"
    },
    {
      "inputs": [],
      "name": "swapRouter",
      "outputs": [
        {
          "internalType": "contract ISwapRouter",
          "name": "",
          "type": "address"
        }
      ],
      "stateMutability": "view",
      "type": "function"
    },
    {
      "inputs": [],
      "name": "symbol",
      "outputs": [
        {
          "internalType": "string",
          "name": "",
          "type": "string"
        }
      ],
      "stateMutability": "view",
      "type": "function"
    },
    {
      "inputs": [],
      "name": "totalSupply",
      "outputs": [
        {
          "internalType": "uint256",
          "name": "",
          "type": "uint256"
        }
      ],
      "stateMutability": "view",
      "type": "function"
    },
    {
      "inputs": [
        {
          "internalType": "address",
          "name": "to",
          "type": "address"
        },
        {
          "internalType": "uint256",
          "name": "amount",
          "type": "uint256"
        }
      ],
      "name": "transfer",
      "outputs": [
        {
          "internalType": "bool",
          "name": "",
          "type": "bool"
        }
      ],
      "stateMutability": "nonpayable",
      "type": "function"
    },
    {
      "inputs": [],
      "name": "transferFeeRate",
      "outputs": [
        {
          "internalType": "uint256",
          "name": "",
          "type": "uint256"
        }
      ],
      "stateMutability": "view",
      "type": "function"
    },
    {
      "inputs": [
        {
          "internalType": "address",
          "name": "from",
          "type": "address"
        },
        {
          "internalType": "address",
          "name": "to",
          "type": "address"
        },
        {
          "internalType": "uint256",
          "name": "amount",
          "type": "uint256"
        }
      ],
      "name": "transferFrom",
      "outputs": [
        {
          "internalType": "bool",
          "name": "",
          "type": "bool"
        }
      ],
      "stateMutability": "nonpayable",
      "type": "function"
    },
    {
      "inputs": [
        {
          "internalType": "address",
          "name": "newOwner",
          "type": "address"
        }
      ],
      "name": "transferOwnership",
      "outputs": [],
      "stateMutability": "nonpayable",
      "type": "function"
    },
    {
      "inputs": [],
      "name": "treasury",
      "outputs": [
        {
          "internalType": "address",
          "name": "",
          "type": "address"
        }
      ],
      "stateMutability": "view",
      "type": "function"
    }
  ],
  "transactionHash": "0xddd6bafa679f0ea1b1defe2206f4841309ffd066346ff234bded75cb831570e2",
  "args": [
    "0xacCeBEdc9A58d2D535A1F0D6625942a9657D8467",
    100
  ],
  "numDeployments": 1,
  "solcInputHash": "cc8b8dfec64b9590ae473e8cb79bb442",
  "bytecode": "0x60806040526007805462ffffff1916610bb81790553480156200002157600080fd5b5060405162001f1438038062001f1483398101604081905262000044916200041c565b604051806040016040528060088152602001672837bd2a37b5b2b760c11b815250604051806040016040528060038152602001622827ad60e91b81525081600390805190602001906200009992919062000376565b508051620000af90600490602084019062000376565b505050620000cc620000c66200023b60201b60201c565b6200023f565b6001600160a01b038216620001325760405162461bcd60e51b815260206004820152602160248201527f504f5a544f4b454e3a2074726561737572792063616e6e6f74206265207a65726044820152606f60f81b60648201526084015b60405180910390fd5b612710811115620001ac5760405162461bcd60e51b815260206004820152603860248201527f504f5a544f4b454e3a207472616e736665722066656520726174652063616e2060448201527f6e6f742062652067726561746572207468616e20313030250000000000000000606482015260840162000129565b600780546301000000600160b81b03191663010000006001600160a01b0385160217905560068190556040518181527f1723c194c108df281b957a5141ed3ebce4571635c93643f26ae09f0b153b4a9e9060200160405180910390a16007546200023390630100000090046001600160a01b03166b033b2e3c9fd0803ce800000062000291565b5050620004bc565b3390565b600580546001600160a01b038381166001600160a01b0319831681179093556040519116919082907f8be0079c531659141344cd1fd0a4f28419497f9722a3daafe3b4186f6b6457e090600090a35050565b6001600160a01b038216620002e95760405162461bcd60e51b815260206004820152601f60248201527f45524332303a206d696e7420746f20746865207a65726f206164647265737300604482015260640162000129565b8060026000828254620002fd919062000458565b90915550506001600160a01b038216600090815260208190526040812080548392906200032c90849062000458565b90915550506040518181526001600160a01b038316906000907fddf252ad1be2c89b69c2b068fc378daa952ba7f163c4a11628f55a4df523b3ef9060200160405180910390a35050565b82805462000384906200047f565b90600052602060002090601f016020900481019282620003a85760008555620003f3565b82601f10620003c357805160ff1916838001178555620003f3565b82800160010185558215620003f3579182015b82811115620003f3578251825591602001919060010190620003d6565b506200040192915062000405565b5090565b5b8082111562000401576000815560010162000406565b600080604083850312156200043057600080fd5b82516001600160a01b03811681146200044857600080fd5b6020939093015192949293505050565b600082198211156200047a57634e487b7160e01b600052601160045260246000fd5b500190565b600181811c908216806200049457607f821691505b60208210811415620004b657634e487b7160e01b600052602260045260246000fd5b50919050565b611a4880620004cc6000396000f3fe608060405234801561001057600080fd5b50600436106101cf5760003560e01c806370a0823111610104578063a9059cbb116100a2578063ddec9f6911610071578063ddec9f691461042f578063e9e15b4f14610442578063f0f4426014610455578063f2fde38b1461046857600080fd5b8063a9059cbb146103bd578063c31c9c07146103d0578063c894e1e5146103e3578063dd62ed3e146103f657600080fd5b80638da5cb5b116100de5780638da5cb5b1461037e57806395d89b411461038f578063a04eecab14610397578063a457c2d7146103aa57600080fd5b806370a082311461033a578063715018a61461036357806373dd250c1461036b57600080fd5b806323b872dd11610171578063395093511161014b57806339509351146102c8578063398e4a58146102db578063456b4a43146102ee57806361d027b31461032057600080fd5b806323b872dd1461029d578063313ce567146102b0578063351bf518146102bf57600080fd5b80630d03f9bc116101ad5780630d03f9bc1461023857806313f1d6ff146102635780631755ff211461027857806318160ddd1461028b57600080fd5b806306fdde03146101d4578063089fe6aa146101f2578063095ea7b314610215575b600080fd5b6101dc61047b565b6040516101e99190611771565b60405180910390f35b6007546102019062ffffff1681565b60405162ffffff90911681526020016101e9565b6102286102233660046117e2565b61050d565b60405190151581526020016101e9565b600a5461024b906001600160a01b031681565b6040516001600160a01b0390911681526020016101e9565b61027661027136600461180c565b610525565b005b60085461024b906001600160a01b031681565b6002545b6040519081526020016101e9565b6102286102ab366004611827565b6105f8565b604051601281526020016101e9565b61028f60065481565b6102286102d63660046117e2565b61061c565b6102766102e936600461180c565b61065b565b6103016102fc366004611863565b610729565b604080516001600160a01b0390931683529015156020830152016101e9565b60075461024b90630100000090046001600160a01b031681565b61028f61034836600461180c565b6001600160a01b031660009081526020819052604090205490565b61027661075e565b61027661037936600461187c565b610772565b6005546001600160a01b031661024b565b6101dc6107c7565b6102766103a53660046118af565b6107d6565b6102286103b83660046117e2565b6109f1565b6102286103cb3660046117e2565b610a83565b600c5461024b906001600160a01b031681565b6102766103f1366004611863565b610a91565b61028f6104043660046118e6565b6001600160a01b03918216600090815260016020908152604080832093909416825291909152205490565b60095461024b906001600160a01b031681565b61027661045036600461180c565b610b46565b61027661046336600461180c565b610c08565b61027661047636600461180c565b610ce0565b60606003805461048a90611919565b80601f01602080910402602001604051908101604052809291908181526020018280546104b690611919565b80156105035780601f106104d857610100808354040283529160200191610503565b820191906000526020600020905b8154815290600101906020018083116104e657829003601f168201915b5050505050905090565b60003361051b818585610d70565b5060019392505050565b61052d610e94565b6001600160a01b0381166105ae5760405162461bcd60e51b815260206004820152602d60248201527f504f5a544f4b454e3a20737461626c6520746f6b656e2061646472657373206360448201527f616e6e6f74206265207a65726f0000000000000000000000000000000000000060648201526084015b60405180910390fd5b600a80546001600160a01b0319166001600160a01b0383169081179091556040517f712ffb6632cbab548e1b7d5e6246685b8313516dd8aacd05768cc22ab9ef294d90600090a250565b600033610606858285610eee565b610611858585610f80565b506001949350505050565b3360008181526001602090815260408083206001600160a01b038716845290915281205490919061051b9082908690610656908790611964565b610d70565b610663610e94565b6001600160a01b0381166106df5760405162461bcd60e51b815260206004820152603060248201527f504f5a544f4b454e3a206261636b696e6720726573657276652061646472657360448201527f732063616e6e6f74206265207a65726f0000000000000000000000000000000060648201526084016105a5565b600980546001600160a01b0319166001600160a01b0383169081179091556040517f1ccea4adea3a35f770029d80d64e4391be8b55c30d19948ecd0682fa523769d590600090a250565b600b818154811061073957600080fd5b6000918252602090912001546001600160a01b0381169150600160a01b900460ff1682565b610766610e94565b6107706000611325565b565b61077a610e94565b6007805462ffffff191662ffffff83169081179091556040519081527f7b30e8f8e3de254785fbcb3068449dc18060f1fdb37b02731ecada99a78492c3906020015b60405180910390a150565b60606004805461048a90611919565b6107de610e94565b6001600160a01b03821661085a5760405162461bcd60e51b815260206004820152602760248201527f504f5a544f4b454e3a206c6f636b656420616464726573732063616e6e6f742060448201527f6265207a65726f0000000000000000000000000000000000000000000000000060648201526084016105a5565b6000805b600b5481101561090b57836001600160a01b0316600b82815481106108855761088561197c565b6000918252602090912001546001600160a01b031614156108f95782600b82815481106108b4576108b461197c565b60009182526020909120018054911515600160a01b027fffffffffffffffffffffff00ffffffffffffffffffffffffffffffffffffffff909216919091179055600191505b8061090381611992565b91505061085e565b50806109a757604080518082019091526001600160a01b03808516825283151560208301908152600b805460018101825560009190915292517f0175b7a638427703f0dbe7bb9bbf987a2551717b34e79f33b5b1008d1fa01db9909301805491511515600160a01b027fffffffffffffffffffffff00000000000000000000000000000000000000000090921693909216929092179190911790555b826001600160a01b03167f184d53962ce12aca87866aae036ec7b74921368a2662b61e6c55ab888a499015836040516109e4911515815260200190565b60405180910390a2505050565b3360008181526001602090815260408083206001600160a01b038716845290915281205490919083811015610a765760405162461bcd60e51b815260206004820152602560248201527f45524332303a2064656372656173656420616c6c6f77616e63652062656c6f77604482015264207a65726f60d81b60648201526084016105a5565b6106118286868403610d70565b60003361051b818585610f80565b610a99610e94565b612710811115610b115760405162461bcd60e51b815260206004820152603860248201527f504f5a544f4b454e3a207472616e736665722066656520726174652063616e2060448201527f6e6f742062652067726561746572207468616e2031303025000000000000000060648201526084016105a5565b60068190556040518181527f1723c194c108df281b957a5141ed3ebce4571635c93643f26ae09f0b153b4a9e906020016107bc565b610b4e610e94565b6001600160a01b038116610bb25760405162461bcd60e51b815260206004820152602560248201527f504f5a544f4b454e3a20706f6f6c20616464726573732063616e6e6f74206265604482015264207a65726f60d81b60648201526084016105a5565b600880546001600160a01b0383166001600160a01b03199182168117909255600c8054909116821790556040517f031da3734b220fa1a63625219719c1d966c26ac87b5bf949943fec5a80392dfb90600090a250565b610c10610e94565b6001600160a01b038116610c705760405162461bcd60e51b815260206004820152602160248201527f504f5a544f4b454e3a2074726561737572792063616e6e6f74206265207a65726044820152606f60f81b60648201526084016105a5565b600780547fffffffffffffffffff0000000000000000000000000000000000000000ffffff1663010000006001600160a01b0384811682029290921792839055604051920416907f7dae230f18360d76a040c81f050aa14eb9d6dc7901b20fc5d855e2a20fe814d190600090a250565b610ce8610e94565b6001600160a01b038116610d645760405162461bcd60e51b815260206004820152602660248201527f4f776e61626c653a206e6577206f776e657220697320746865207a65726f206160448201527f646472657373000000000000000000000000000000000000000000000000000060648201526084016105a5565b610d6d81611325565b50565b6001600160a01b038316610dd25760405162461bcd60e51b8152602060048201526024808201527f45524332303a20617070726f76652066726f6d20746865207a65726f206164646044820152637265737360e01b60648201526084016105a5565b6001600160a01b038216610e335760405162461bcd60e51b815260206004820152602260248201527f45524332303a20617070726f766520746f20746865207a65726f206164647265604482015261737360f01b60648201526084016105a5565b6001600160a01b0383811660008181526001602090815260408083209487168084529482529182902085905590518481527f8c5be1e5ebec7d5bd14f71427d1e84f3dd0314c0f7b2291e5b200ac8c7c3b925910160405180910390a3505050565b6005546001600160a01b031633146107705760405162461bcd60e51b815260206004820181905260248201527f4f776e61626c653a2063616c6c6572206973206e6f7420746865206f776e657260448201526064016105a5565b6001600160a01b038381166000908152600160209081526040808320938616835292905220546000198114610f7a5781811015610f6d5760405162461bcd60e51b815260206004820152601d60248201527f45524332303a20696e73756666696369656e7420616c6c6f77616e636500000060448201526064016105a5565b610f7a8484848403610d70565b50505050565b6001600160a01b038316301480610f9f57506001600160a01b03821630145b15610fb457610faf838383611377565b505050565b6008546000906001600160a01b0385811691161480610fe057506008546001600160a01b038481169116145b610feb576000611006565b61271060065483610ffc91906119ad565b61100691906119cc565b905060008111801561102257506008546001600160a01b031615155b1561131a5761103b848461103684866119ee565b611377565b600061104682611574565b600a5460095460405163a9059cbb60e01b81526001600160a01b03918216600482015260248101849052929350169063a9059cbb906044016020604051808303816000875af115801561109d573d6000803e3d6000fd5b505050506040513d601f19601f820116820180604052508101906110c19190611a05565b5060006110cc611694565b600a546009546040516370a0823160e01b81526001600160a01b0391821660048201529293506000926111be9291909116906370a0823190602401602060405180830381865afa158015611124573d6000803e3d6000fd5b505050506040513d601f19601f820116820180604052508101906111489190611a22565b600a546008546040516370a0823160e01b81526001600160a01b0391821660048201529116906370a0823190602401602060405180830381865afa158015611194573d6000803e3d6000fd5b505050506040513d601f19601f820116820180604052508101906111b89190611a22565b90611741565b600a546008546040516370a0823160e01b81526001600160a01b03918216600482015292935060009261124b928592611245929116906370a0823190602401602060405180830381865afa15801561121a573d6000803e3d6000fd5b505050506040513d601f19601f8201168201806040525081019061123e9190611a22565b869061174d565b90611759565b6008546001600160a01b031660009081526020819052604090205490915081106112c2576008546001600160a01b0316600090815260208190526040812054611295908390611765565b6007546008549192506112bc916001600160a01b0363010000009092048216911683611377565b50611311565b6008546001600160a01b03166000908152602081905260408120546112e79083611765565b60085460075491925061130f916001600160a01b039182169163010000009091041683611377565b505b50505050610f7a565b610f7a848484611377565b600580546001600160a01b038381166001600160a01b0319831681179093556040519116919082907f8be0079c531659141344cd1fd0a4f28419497f9722a3daafe3b4186f6b6457e090600090a35050565b6001600160a01b0383166113f35760405162461bcd60e51b815260206004820152602560248201527f45524332303a207472616e736665722066726f6d20746865207a65726f20616460448201527f647265737300000000000000000000000000000000000000000000000000000060648201526084016105a5565b6001600160a01b0382166114555760405162461bcd60e51b815260206004820152602360248201527f45524332303a207472616e7366657220746f20746865207a65726f206164647260448201526265737360e81b60648201526084016105a5565b6001600160a01b038316600090815260208190526040902054818110156114e45760405162461bcd60e51b815260206004820152602660248201527f45524332303a207472616e7366657220616d6f756e742065786365656473206260448201527f616c616e6365000000000000000000000000000000000000000000000000000060648201526084016105a5565b6001600160a01b0380851660009081526020819052604080822085850390559185168152908120805484929061151b908490611964565b92505081905550826001600160a01b0316846001600160a01b03167fddf252ad1be2c89b69c2b068fc378daa952ba7f163c4a11628f55a4df523b3ef8460405161156791815260200190565b60405180910390a3610f7a565b60085460009061158f9030906001600160a01b031684610d70565b604080516101008101825230808252600a546001600160a01b039081166020840190815260075462ffffff90811685870190815260608601948552426080870190815260a087018a8152600060c0890181815260e08a01918252600c549a5163414bf38960e01b81528a518916600482015296518816602488015293519094166044860152955185166064850152516084840152935160a4830152925160c48201529151811660e483015291929091169063414bf38990610104016020604051808303816000875af1158015611669573d6000803e3d6000fd5b505050506040513d601f19601f8201168201806040525081019061168d9190611a22565b9392505050565b6000806116a060025490565b905060005b600b5481101561173b57600b81815481106116c2576116c261197c565b600091825260209091200154600160a01b900460ff1615611729576000611719600b83815481106116f5576116f561197c565b60009182526020808320909101546001600160a01b03168252819052604090205490565b90506117258382611765565b9250505b8061173381611992565b9150506116a5565b50919050565b600061168d8284611964565b600061168d82846119ad565b600061168d82846119cc565b600061168d82846119ee565b600060208083528351808285015260005b8181101561179e57858101830151858201604001528201611782565b818111156117b0576000604083870101525b50601f01601f1916929092016040019392505050565b80356001600160a01b03811681146117dd57600080fd5b919050565b600080604083850312156117f557600080fd5b6117fe836117c6565b946020939093013593505050565b60006020828403121561181e57600080fd5b61168d826117c6565b60008060006060848603121561183c57600080fd5b611845846117c6565b9250611853602085016117c6565b9150604084013590509250925092565b60006020828403121561187557600080fd5b5035919050565b60006020828403121561188e57600080fd5b813562ffffff8116811461168d57600080fd5b8015158114610d6d57600080fd5b600080604083850312156118c257600080fd5b6118cb836117c6565b915060208301356118db816118a1565b809150509250929050565b600080604083850312156118f957600080fd5b611902836117c6565b9150611910602084016117c6565b90509250929050565b600181811c9082168061192d57607f821691505b6020821081141561173b57634e487b7160e01b600052602260045260246000fd5b634e487b7160e01b600052601160045260246000fd5b600082198211156119775761197761194e565b500190565b634e487b7160e01b600052603260045260246000fd5b60006000198214156119a6576119a661194e565b5060010190565b60008160001904831182151516156119c7576119c761194e565b500290565b6000826119e957634e487b7160e01b600052601260045260246000fd5b500490565b600082821015611a0057611a0061194e565b500390565b600060208284031215611a1757600080fd5b815161168d816118a1565b600060208284031215611a3457600080fd5b505191905056fea164736f6c634300080a000a",
  "devdoc": {
    "kind": "dev",
    "methods": {
      "allowance(address,address)": {
        "details": "See {IERC20-allowance}."
      },
      "approve(address,uint256)": {
        "details": "See {IERC20-approve}. NOTE: If `amount` is the maximum `uint256`, the allowance is not updated on `transferFrom`. This is semantically equivalent to an infinite approval. Requirements: - `spender` cannot be the zero address."
      },
      "balanceOf(address)": {
        "details": "See {IERC20-balanceOf}."
      },
      "decimals()": {
        "details": "Returns the number of decimals used to get its user representation. For example, if `decimals` equals `2`, a balance of `505` tokens should be displayed to a user as `5.05` (`505 / 10 ** 2`). Tokens usually opt for a value of 18, imitating the relationship between Ether and Wei. This is the value {ERC20} uses, unless this function is overridden; NOTE: This information is only used for _display_ purposes: it in no way affects any of the arithmetic of the contract, including {IERC20-balanceOf} and {IERC20-transfer}."
      },
      "decreaseAllowance(address,uint256)": {
        "details": "Atomically decreases the allowance granted to `spender` by the caller. This is an alternative to {approve} that can be used as a mitigation for problems described in {IERC20-approve}. Emits an {Approval} event indicating the updated allowance. Requirements: - `spender` cannot be the zero address. - `spender` must have allowance for the caller of at least `subtractedValue`."
      },
      "increaseAllowance(address,uint256)": {
        "details": "Atomically increases the allowance granted to `spender` by the caller. This is an alternative to {approve} that can be used as a mitigation for problems described in {IERC20-approve}. Emits an {Approval} event indicating the updated allowance. Requirements: - `spender` cannot be the zero address."
      },
      "name()": {
        "details": "Returns the name of the token."
      },
      "owner()": {
        "details": "Returns the address of the current owner."
      },
      "renounceOwnership()": {
        "details": "Leaves the contract without owner. It will not be possible to call `onlyOwner` functions anymore. Can only be called by the current owner. NOTE: Renouncing ownership will leave the contract without an owner, thereby removing any functionality that is only available to the owner."
      },
      "symbol()": {
        "details": "Returns the symbol of the token, usually a shorter version of the name."
      },
      "totalSupply()": {
        "details": "See {IERC20-totalSupply}."
      },
      "transfer(address,uint256)": {
        "details": "See {IERC20-transfer}. Requirements: - `to` cannot be the zero address. - the caller must have a balance of at least `amount`."
      },
      "transferFrom(address,address,uint256)": {
        "details": "See {IERC20-transferFrom}. Emits an {Approval} event indicating the updated allowance. This is not required by the EIP. See the note at the beginning of {ERC20}. NOTE: Does not update the allowance if the current allowance is the maximum `uint256`. Requirements: - `from` and `to` cannot be the zero address. - `from` must have a balance of at least `amount`. - the caller must have allowance for ``from``'s tokens of at least `amount`."
      },
      "transferOwnership(address)": {
        "details": "Transfers ownership of the contract to a new account (`newOwner`). Can only be called by the current owner."
      }
    },
    "version": 1
  },
  "userdoc": {
    "kind": "user",
    "methods": {},
    "version": 1
  },
  "storageLayout": {
    "storage": [
      {
        "astId": 806,
        "contract": "contracts/PozToken.sol:PozToken",
        "label": "_balances",
        "offset": 0,
        "slot": "0",
        "type": "t_mapping(t_address,t_uint256)"
      },
      {
        "astId": 812,
        "contract": "contracts/PozToken.sol:PozToken",
        "label": "_allowances",
        "offset": 0,
        "slot": "1",
        "type": "t_mapping(t_address,t_mapping(t_address,t_uint256))"
      },
      {
        "astId": 814,
        "contract": "contracts/PozToken.sol:PozToken",
        "label": "_totalSupply",
        "offset": 0,
        "slot": "2",
        "type": "t_uint256"
      },
      {
        "astId": 816,
        "contract": "contracts/PozToken.sol:PozToken",
        "label": "_name",
        "offset": 0,
        "slot": "3",
        "type": "t_string_storage"
      },
      {
        "astId": 818,
        "contract": "contracts/PozToken.sol:PozToken",
        "label": "_symbol",
        "offset": 0,
        "slot": "4",
        "type": "t_string_storage"
      },
      {
        "astId": 645,
        "contract": "contracts/PozToken.sol:PozToken",
        "label": "_owner",
        "offset": 0,
        "slot": "5",
        "type": "t_address"
      },
      {
        "astId": 5478,
        "contract": "contracts/PozToken.sol:PozToken",
        "label": "transferFeeRate",
        "offset": 0,
        "slot": "6",
        "type": "t_uint256"
      },
      {
        "astId": 5481,
        "contract": "contracts/PozToken.sol:PozToken",
        "label": "poolFee",
        "offset": 0,
        "slot": "7",
        "type": "t_uint24"
      },
      {
        "astId": 5483,
        "contract": "contracts/PozToken.sol:PozToken",
        "label": "treasury",
        "offset": 3,
        "slot": "7",
        "type": "t_address"
      },
      {
        "astId": 5485,
        "contract": "contracts/PozToken.sol:PozToken",
        "label": "poolAddress",
        "offset": 0,
        "slot": "8",
        "type": "t_address"
      },
      {
        "astId": 5487,
        "contract": "contracts/PozToken.sol:PozToken",
        "label": "backingReserveAddress",
        "offset": 0,
        "slot": "9",
        "type": "t_address"
      },
      {
        "astId": 5489,
        "contract": "contracts/PozToken.sol:PozToken",
        "label": "stableTokenAddress",
        "offset": 0,
        "slot": "10",
        "type": "t_address"
      },
      {
        "astId": 5493,
        "contract": "contracts/PozToken.sol:PozToken",
        "label": "lockedAddress",
        "offset": 0,
        "slot": "11",
        "type": "t_array(t_struct(LockedAddress)6168_storage)dyn_storage"
      },
      {
        "astId": 5496,
        "contract": "contracts/PozToken.sol:PozToken",
        "label": "swapRouter",
        "offset": 0,
        "slot": "12",
        "type": "t_contract(ISwapRouter)4213"
      }
    ],
    "types": {
      "t_address": {
        "encoding": "inplace",
        "label": "address",
        "numberOfBytes": "20"
      },
      "t_array(t_struct(LockedAddress)6168_storage)dyn_storage": {
        "base": "t_struct(LockedAddress)6168_storage",
        "encoding": "dynamic_array",
        "label": "struct LockedAddress[]",
        "numberOfBytes": "32"
      },
      "t_bool": {
        "encoding": "inplace",
        "label": "bool",
        "numberOfBytes": "1"
      },
      "t_contract(ISwapRouter)4213": {
        "encoding": "inplace",
        "label": "contract ISwapRouter",
        "numberOfBytes": "20"
      },
      "t_mapping(t_address,t_mapping(t_address,t_uint256))": {
        "encoding": "mapping",
        "key": "t_address",
        "label": "mapping(address => mapping(address => uint256))",
        "numberOfBytes": "32",
        "value": "t_mapping(t_address,t_uint256)"
      },
      "t_mapping(t_address,t_uint256)": {
        "encoding": "mapping",
        "key": "t_address",
        "label": "mapping(address => uint256)",
        "numberOfBytes": "32",
        "value": "t_uint256"
      },
      "t_string_storage": {
        "encoding": "bytes",
        "label": "string",
        "numberOfBytes": "32"
      },
      "t_struct(LockedAddress)6168_storage": {
        "encoding": "inplace",
        "label": "struct LockedAddress",
        "members": [
          {
            "astId": 6165,
            "contract": "contracts/PozToken.sol:PozToken",
            "label": "lockedAddress",
            "offset": 0,
            "slot": "0",
            "type": "t_address"
          },
          {
            "astId": 6167,
            "contract": "contracts/PozToken.sol:PozToken",
            "label": "status",
            "offset": 20,
            "slot": "0",
            "type": "t_bool"
          }
        ],
        "numberOfBytes": "32"
      },
      "t_uint24": {
        "encoding": "inplace",
        "label": "uint24",
        "numberOfBytes": "3"
      },
      "t_uint256": {
        "encoding": "inplace",
        "label": "uint256",
        "numberOfBytes": "32"
      }
    }
  }
}